{
  "_format": "hh-sol-artifact-1",
  "contractName": "JudeSwap",
  "sourceName": "contracts/Jude.sol",
  "abi": [
    {
      "inputs": [],
      "stateMutability": "nonpayable",
      "type": "constructor"
    },
    {
      "inputs": [
        {
          "internalType": "string",
          "name": "tokenName",
          "type": "string"
        },
        {
          "internalType": "address",
          "name": "_address",
          "type": "address"
        }
      ],
      "name": "getBalance",
      "outputs": [
        {
          "internalType": "uint256",
          "name": "",
          "type": "uint256"
        }
      ],
      "stateMutability": "view",
      "type": "function"
    },
    {
      "inputs": [],
      "name": "getEthBalance",
      "outputs": [
        {
          "internalType": "uint256",
          "name": "",
          "type": "uint256"
        }
      ],
      "stateMutability": "view",
      "type": "function"
    },
    {
      "inputs": [
        {
          "internalType": "string",
          "name": "tokenName",
          "type": "string"
        }
      ],
      "name": "getName",
      "outputs": [
        {
          "internalType": "string",
          "name": "",
          "type": "string"
        }
      ],
      "stateMutability": "view",
      "type": "function"
    },
    {
      "inputs": [
        {
          "internalType": "string",
          "name": "tokenName",
          "type": "string"
        }
      ],
      "name": "getTokenAddress",
      "outputs": [
        {
          "internalType": "address",
          "name": "",
          "type": "address"
        }
      ],
      "stateMutability": "view",
      "type": "function"
    },
    {
      "inputs": [
        {
          "internalType": "string",
          "name": "tokenName",
          "type": "string"
        }
      ],
      "name": "swapEthToToken",
      "outputs": [
        {
          "internalType": "uint256",
          "name": "",
          "type": "uint256"
        }
      ],
      "stateMutability": "payable",
      "type": "function"
    },
    {
      "inputs": [
        {
          "internalType": "string",
          "name": "tokenName",
          "type": "string"
        },
        {
          "internalType": "uint256",
          "name": "_amount",
          "type": "uint256"
        }
      ],
      "name": "swapTokenToEth",
      "outputs": [
        {
          "internalType": "uint256",
          "name": "",
          "type": "uint256"
        }
      ],
      "stateMutability": "nonpayable",
      "type": "function"
    },
    {
      "inputs": [
        {
          "internalType": "string",
          "name": "",
          "type": "string"
        }
      ],
      "name": "tokenInstanceMap",
      "outputs": [
        {
          "internalType": "contract ERC20",
          "name": "",
          "type": "address"
        }
      ],
      "stateMutability": "view",
      "type": "function"
    },
    {
      "inputs": [
        {
          "internalType": "uint256",
          "name": "",
          "type": "uint256"
        }
      ],
      "name": "tokens",
      "outputs": [
        {
          "internalType": "string",
          "name": "",
          "type": "string"
        }
      ],
      "stateMutability": "view",
      "type": "function"
    }
  ],
  "bytecode": "0x608060405260405180602001604052806040518060400160405280600481526020017f4a5544450000000000000000000000000000000000000000000000000000000081525081525060009060016200005a929190620001a0565b5066038d7ea4c680006002553480156200007357600080fd5b5060005b600080549050811015620001995760008082815481106200009d576200009c6200029b565b5b9060005260206000200160008381548110620000be57620000bd6200029b565b5b90600052602060002001604051620000d69062000200565b620000e3929190620003e4565b604051809103906000f08015801562000100573d6000803e3d6000fd5b509050806001600084815481106200011d576200011c6200029b565b5b90600052602060002001604051620001369190620004b9565b908152602001604051809103902060006101000a81548173ffffffffffffffffffffffffffffffffffffffff021916908373ffffffffffffffffffffffffffffffffffffffff16021790555050808062000190906200050b565b91505062000077565b5062000836565b828054828255906000526020600020908101928215620001ed579160200282015b82811115620001ec578251829081620001db91906200074f565b5091602001919060010190620001c1565b5b509050620001fc91906200020e565b5090565b611828806200184383390190565b5b8082111562000232576000818162000228919062000236565b506001016200020f565b5090565b5080546200024490620002f9565b6000825580601f1062000258575062000279565b601f0160209004906000526020600020908101906200027891906200027c565b5b50565b5b80821115620002975760008160009055506001016200027d565b5090565b7f4e487b7100000000000000000000000000000000000000000000000000000000600052603260045260246000fd5b7f4e487b7100000000000000000000000000000000000000000000000000000000600052602260045260246000fd5b600060028204905060018216806200031257607f821691505b602082108103620003285762000327620002ca565b5b50919050565b600082825260208201905092915050565b60008190508160005260206000209050919050565b600081546200036381620002f9565b6200036f81866200032e565b945060018216600081146200038d5760018114620003a457620003db565b60ff198316865281151560200286019350620003db565b620003af856200033f565b60005b83811015620003d357815481890152600182019150602081019050620003b2565b808801955050505b50505092915050565b6000604082019050818103600083015262000400818562000354565b9050818103602083015262000416818462000354565b90509392505050565b600081905092915050565b600081546200043981620002f9565b6200044581866200041f565b945060018216600081146200046357600181146200047957620004b0565b60ff1983168652811515820286019350620004b0565b62000484856200033f565b60005b83811015620004a85781548189015260018201915060208101905062000487565b838801955050505b50505092915050565b6000620004c782846200042a565b915081905092915050565b7f4e487b7100000000000000000000000000000000000000000000000000000000600052601160045260246000fd5b6000819050919050565b6000620005188262000501565b91507fffffffffffffffffffffffffffffffffffffffffffffffffffffffffffffffff82036200054d576200054c620004d2565b5b600182019050919050565b600081519050919050565b7f4e487b7100000000000000000000000000000000000000000000000000000000600052604160045260246000fd5b60006020601f8301049050919050565b600082821b905092915050565b600060088302620005e17fffffffffffffffffffffffffffffffffffffffffffffffffffffffffffffffff82620005a2565b620005ed8683620005a2565b95508019841693508086168417925050509392505050565b6000819050919050565b6000620006306200062a620006248462000501565b62000605565b62000501565b9050919050565b6000819050919050565b6200064c836200060f565b620006646200065b8262000637565b848454620005af565b825550505050565b600090565b6200067b6200066c565b6200068881848462000641565b505050565b5b81811015620006b057620006a460008262000671565b6001810190506200068e565b5050565b601f821115620006ff57620006c9816200033f565b620006d48462000592565b81016020851015620006e4578190505b620006fc620006f38562000592565b8301826200068d565b50505b505050565b600082821c905092915050565b6000620007246000198460080262000704565b1980831691505092915050565b60006200073f838362000711565b9150826002028217905092915050565b6200075a8262000558565b67ffffffffffffffff81111562000776576200077562000563565b5b620007828254620002f9565b6200078f828285620006b4565b600060209050601f831160018114620007c75760008415620007b2578287015190505b620007be858262000731565b8655506200082e565b601f198416620007d7866200033f565b60005b828110156200080157848901518255600182019150602085019450602081019050620007da565b868310156200082157848901516200081d601f89168262000711565b8355505b6001600288020188555050505b505050505050565b610ffd80620008466000396000f3fe60806040526004361061007b5760003560e01c806389f4b3171161004e57806389f4b31714610155578063a93325ed14610192578063c4091236146101cf578063db6f63ee1461020c5761007b565b80634f64b2be1461008057806363fcf7c5146100bd5780636932cf81146100ed57806370ed0ada1461012a575b600080fd5b34801561008c57600080fd5b506100a760048036038101906100a291906107d6565b610249565b6040516100b49190610893565b60405180910390f35b6100d760048036038101906100d291906109ea565b6102f5565b6040516100e49190610a42565b60405180910390f35b3480156100f957600080fd5b50610114600480360381019061010f91906109ea565b6103ef565b6040516101219190610893565b60405180910390f35b34801561013657600080fd5b5061013f6104aa565b60405161014c9190610a42565b60405180910390f35b34801561016157600080fd5b5061017c60048036038101906101779190610abb565b6104b2565b6040516101899190610a42565b60405180910390f35b34801561019e57600080fd5b506101b960048036038101906101b491906109ea565b610574565b6040516101c69190610b76565b60405180910390f35b3480156101db57600080fd5b506101f660048036038101906101f191906109ea565b6105bd565b6040516102039190610ba0565b60405180910390f35b34801561021857600080fd5b50610233600480360381019061022e9190610bbb565b610605565b6040516102409190610a42565b60405180910390f35b6000818154811061025957600080fd5b90600052602060002001600091509050805461027490610c46565b80601f01602080910402602001604051908101604052809291908181526020018280546102a090610c46565b80156102ed5780601f106102c2576101008083540402835291602001916102ed565b820191906000526020600020905b8154815290600101906020018083116102d057829003601f168201915b505050505081565b6000803490506000670de0b6b3a7640000600254836103149190610cd5565b61031e9190610d06565b90506001846040516103309190610d84565b908152602001604051809103902060009054906101000a900473ffffffffffffffffffffffffffffffffffffffff1673ffffffffffffffffffffffffffffffffffffffff1663a9059cbb33836040518363ffffffff1660e01b8152600401610399929190610d9b565b6020604051808303816000875af11580156103b8573d6000803e3d6000fd5b505050506040513d601f19601f820116820180604052508101906103dc9190610dfc565b6103e557600080fd5b8092505050919050565b60606001826040516104019190610d84565b908152602001604051809103902060009054906101000a900473ffffffffffffffffffffffffffffffffffffffff1673ffffffffffffffffffffffffffffffffffffffff166306fdde036040518163ffffffff1660e01b8152600401600060405180830381865afa15801561047a573d6000803e3d6000fd5b505050506040513d6000823e3d601f19601f820116820180604052508101906104a39190610e99565b9050919050565b600047905090565b60006001836040516104c49190610d84565b908152602001604051809103902060009054906101000a900473ffffffffffffffffffffffffffffffffffffffff1673ffffffffffffffffffffffffffffffffffffffff166370a08231836040518263ffffffff1660e01b815260040161052b9190610ba0565b602060405180830381865afa158015610548573d6000803e3d6000fd5b505050506040513d601f19601f8201168201806040525081019061056c9190610ef7565b905092915050565b6001818051602081018201805184825260208301602085012081835280955050505050506000915054906101000a900473ffffffffffffffffffffffffffffffffffffffff1681565b60006001826040516105cf9190610d84565b908152602001604051809103902060009054906101000a900473ffffffffffffffffffffffffffffffffffffffff169050919050565b600080670de0b6b3a76400008361061c9190610cd5565b905060006002548261062e9190610d06565b905080471015610673576040517f08c379a000000000000000000000000000000000000000000000000000000000815260040161066a90610f70565b60405180910390fd5b3373ffffffffffffffffffffffffffffffffffffffff166108fc829081150290604051600060405180830381858888f193505050501580156106b9573d6000803e3d6000fd5b506001856040516106ca9190610d84565b908152602001604051809103902060009054906101000a900473ffffffffffffffffffffffffffffffffffffffff1673ffffffffffffffffffffffffffffffffffffffff166323b872dd3330876040518463ffffffff1660e01b815260040161073593929190610f90565b6020604051808303816000875af1158015610754573d6000803e3d6000fd5b505050506040513d601f19601f820116820180604052508101906107789190610dfc565b61078157600080fd5b809250505092915050565b6000604051905090565b600080fd5b600080fd5b6000819050919050565b6107b3816107a0565b81146107be57600080fd5b50565b6000813590506107d0816107aa565b92915050565b6000602082840312156107ec576107eb610796565b5b60006107fa848285016107c1565b91505092915050565b600081519050919050565b600082825260208201905092915050565b60005b8381101561083d578082015181840152602081019050610822565b60008484015250505050565b6000601f19601f8301169050919050565b600061086582610803565b61086f818561080e565b935061087f81856020860161081f565b61088881610849565b840191505092915050565b600060208201905081810360008301526108ad818461085a565b905092915050565b600080fd5b600080fd5b7f4e487b7100000000000000000000000000000000000000000000000000000000600052604160045260246000fd5b6108f782610849565b810181811067ffffffffffffffff82111715610916576109156108bf565b5b80604052505050565b600061092961078c565b905061093582826108ee565b919050565b600067ffffffffffffffff821115610955576109546108bf565b5b61095e82610849565b9050602081019050919050565b82818337600083830152505050565b600061098d6109888461093a565b61091f565b9050828152602081018484840111156109a9576109a86108ba565b5b6109b484828561096b565b509392505050565b600082601f8301126109d1576109d06108b5565b5b81356109e184826020860161097a565b91505092915050565b600060208284031215610a00576109ff610796565b5b600082013567ffffffffffffffff811115610a1e57610a1d61079b565b5b610a2a848285016109bc565b91505092915050565b610a3c816107a0565b82525050565b6000602082019050610a576000830184610a33565b92915050565b600073ffffffffffffffffffffffffffffffffffffffff82169050919050565b6000610a8882610a5d565b9050919050565b610a9881610a7d565b8114610aa357600080fd5b50565b600081359050610ab581610a8f565b92915050565b60008060408385031215610ad257610ad1610796565b5b600083013567ffffffffffffffff811115610af057610aef61079b565b5b610afc858286016109bc565b9250506020610b0d85828601610aa6565b9150509250929050565b6000819050919050565b6000610b3c610b37610b3284610a5d565b610b17565b610a5d565b9050919050565b6000610b4e82610b21565b9050919050565b6000610b6082610b43565b9050919050565b610b7081610b55565b82525050565b6000602082019050610b8b6000830184610b67565b92915050565b610b9a81610a7d565b82525050565b6000602082019050610bb56000830184610b91565b92915050565b60008060408385031215610bd257610bd1610796565b5b600083013567ffffffffffffffff811115610bf057610bef61079b565b5b610bfc858286016109bc565b9250506020610c0d858286016107c1565b9150509250929050565b7f4e487b7100000000000000000000000000000000000000000000000000000000600052602260045260246000fd5b60006002820490506001821680610c5e57607f821691505b602082108103610c7157610c70610c17565b5b50919050565b7f4e487b7100000000000000000000000000000000000000000000000000000000600052601260045260246000fd5b7f4e487b7100000000000000000000000000000000000000000000000000000000600052601160045260246000fd5b6000610ce0826107a0565b9150610ceb836107a0565b925082610cfb57610cfa610c77565b5b828204905092915050565b6000610d11826107a0565b9150610d1c836107a0565b9250828202610d2a816107a0565b91508282048414831517610d4157610d40610ca6565b5b5092915050565b600081905092915050565b6000610d5e82610803565b610d688185610d48565b9350610d7881856020860161081f565b80840191505092915050565b6000610d908284610d53565b915081905092915050565b6000604082019050610db06000830185610b91565b610dbd6020830184610a33565b9392505050565b60008115159050919050565b610dd981610dc4565b8114610de457600080fd5b50565b600081519050610df681610dd0565b92915050565b600060208284031215610e1257610e11610796565b5b6000610e2084828501610de7565b91505092915050565b6000610e3c610e378461093a565b61091f565b905082815260208101848484011115610e5857610e576108ba565b5b610e6384828561081f565b509392505050565b600082601f830112610e8057610e7f6108b5565b5b8151610e90848260208601610e29565b91505092915050565b600060208284031215610eaf57610eae610796565b5b600082015167ffffffffffffffff811115610ecd57610ecc61079b565b5b610ed984828501610e6b565b91505092915050565b600081519050610ef1816107aa565b92915050565b600060208284031215610f0d57610f0c610796565b5b6000610f1b84828501610ee2565b91505092915050565b7f4465782069732072756e6e696e67206c6f77206f6e2062616c616e63652e0000600082015250565b6000610f5a601e8361080e565b9150610f6582610f24565b602082019050919050565b60006020820190508181036000830152610f8981610f4d565b9050919050565b6000606082019050610fa56000830186610b91565b610fb26020830185610b91565b610fbf6040830184610a33565b94935050505056fea2646970667358221220402677dc073587e381e90a4cef510082330c57b2be681cc122ed78cb2f2c88ef64736f6c6343000814003360806040523480156200001157600080fd5b5060405162001828380380620018288339818101604052810190620000379190620004d5565b818181600390816200004a9190620007a5565b5080600490816200005c9190620007a5565b5050506200007d336b033b2e3c9fd0803ce80000006200008560201b60201c565b5050620009c3565b600073ffffffffffffffffffffffffffffffffffffffff168273ffffffffffffffffffffffffffffffffffffffff1603620000fa5760006040517fec442f05000000000000000000000000000000000000000000000000000000008152600401620000f19190620008d1565b60405180910390fd5b6200010e600083836200011260201b60201c565b5050565b600073ffffffffffffffffffffffffffffffffffffffff168373ffffffffffffffffffffffffffffffffffffffff1603620001685780600260008282546200015b91906200091d565b925050819055506200023e565b60008060008573ffffffffffffffffffffffffffffffffffffffff1673ffffffffffffffffffffffffffffffffffffffff16815260200190815260200160002054905081811015620001f7578381836040517fe450d38c000000000000000000000000000000000000000000000000000000008152600401620001ee9392919062000969565b60405180910390fd5b8181036000808673ffffffffffffffffffffffffffffffffffffffff1673ffffffffffffffffffffffffffffffffffffffff16815260200190815260200160002081905550505b600073ffffffffffffffffffffffffffffffffffffffff168273ffffffffffffffffffffffffffffffffffffffff1603620002895780600260008282540392505081905550620002d6565b806000808473ffffffffffffffffffffffffffffffffffffffff1673ffffffffffffffffffffffffffffffffffffffff168152602001908152602001600020600082825401925050819055505b8173ffffffffffffffffffffffffffffffffffffffff168373ffffffffffffffffffffffffffffffffffffffff167fddf252ad1be2c89b69c2b068fc378daa952ba7f163c4a11628f55a4df523b3ef83604051620003359190620009a6565b60405180910390a3505050565b6000604051905090565b600080fd5b600080fd5b600080fd5b600080fd5b6000601f19601f8301169050919050565b7f4e487b7100000000000000000000000000000000000000000000000000000000600052604160045260246000fd5b620003ab8262000360565b810181811067ffffffffffffffff82111715620003cd57620003cc62000371565b5b80604052505050565b6000620003e262000342565b9050620003f08282620003a0565b919050565b600067ffffffffffffffff82111562000413576200041262000371565b5b6200041e8262000360565b9050602081019050919050565b60005b838110156200044b5780820151818401526020810190506200042e565b60008484015250505050565b60006200046e6200046884620003f5565b620003d6565b9050828152602081018484840111156200048d576200048c6200035b565b5b6200049a8482856200042b565b509392505050565b600082601f830112620004ba57620004b962000356565b5b8151620004cc84826020860162000457565b91505092915050565b60008060408385031215620004ef57620004ee6200034c565b5b600083015167ffffffffffffffff81111562000510576200050f62000351565b5b6200051e85828601620004a2565b925050602083015167ffffffffffffffff81111562000542576200054162000351565b5b6200055085828601620004a2565b9150509250929050565b600081519050919050565b7f4e487b7100000000000000000000000000000000000000000000000000000000600052602260045260246000fd5b60006002820490506001821680620005ad57607f821691505b602082108103620005c357620005c262000565565b5b50919050565b60008190508160005260206000209050919050565b60006020601f8301049050919050565b600082821b905092915050565b6000600883026200062d7fffffffffffffffffffffffffffffffffffffffffffffffffffffffffffffffff82620005ee565b620006398683620005ee565b95508019841693508086168417925050509392505050565b6000819050919050565b6000819050919050565b600062000686620006806200067a8462000651565b6200065b565b62000651565b9050919050565b6000819050919050565b620006a28362000665565b620006ba620006b1826200068d565b848454620005fb565b825550505050565b600090565b620006d1620006c2565b620006de81848462000697565b505050565b5b818110156200070657620006fa600082620006c7565b600181019050620006e4565b5050565b601f82111562000755576200071f81620005c9565b6200072a84620005de565b810160208510156200073a578190505b620007526200074985620005de565b830182620006e3565b50505b505050565b600082821c905092915050565b60006200077a600019846008026200075a565b1980831691505092915050565b600062000795838362000767565b9150826002028217905092915050565b620007b0826200055a565b67ffffffffffffffff811115620007cc57620007cb62000371565b5b620007d8825462000594565b620007e58282856200070a565b600060209050601f8311600181146200081d576000841562000808578287015190505b62000814858262000787565b86555062000884565b601f1984166200082d86620005c9565b60005b82811015620008575784890151825560018201915060208501945060208101905062000830565b8683101562000877578489015162000873601f89168262000767565b8355505b6001600288020188555050505b505050505050565b600073ffffffffffffffffffffffffffffffffffffffff82169050919050565b6000620008b9826200088c565b9050919050565b620008cb81620008ac565b82525050565b6000602082019050620008e86000830184620008c0565b92915050565b7f4e487b7100000000000000000000000000000000000000000000000000000000600052601160045260246000fd5b60006200092a8262000651565b9150620009378362000651565b9250828201905080821115620009525762000951620008ee565b5b92915050565b620009638162000651565b82525050565b6000606082019050620009806000830186620008c0565b6200098f602083018562000958565b6200099e604083018462000958565b949350505050565b6000602082019050620009bd600083018462000958565b92915050565b610e5580620009d36000396000f3fe608060405234801561001057600080fd5b50600436106100935760003560e01c8063313ce56711610066578063313ce5671461013457806370a082311461015257806395d89b4114610182578063a9059cbb146101a0578063dd62ed3e146101d057610093565b806306fdde0314610098578063095ea7b3146100b657806318160ddd146100e657806323b872dd14610104575b600080fd5b6100a0610200565b6040516100ad9190610aa9565b60405180910390f35b6100d060048036038101906100cb9190610b64565b610292565b6040516100dd9190610bbf565b60405180910390f35b6100ee6102b5565b6040516100fb9190610be9565b60405180910390f35b61011e60048036038101906101199190610c04565b6102bf565b60405161012b9190610bbf565b60405180910390f35b61013c6102ee565b6040516101499190610c73565b60405180910390f35b61016c60048036038101906101679190610c8e565b6102f7565b6040516101799190610be9565b60405180910390f35b61018a61033f565b6040516101979190610aa9565b60405180910390f35b6101ba60048036038101906101b59190610b64565b6103d1565b6040516101c79190610bbf565b60405180910390f35b6101ea60048036038101906101e59190610cbb565b6103f4565b6040516101f79190610be9565b60405180910390f35b60606003805461020f90610d2a565b80601f016020809104026020016040519081016040528092919081815260200182805461023b90610d2a565b80156102885780601f1061025d57610100808354040283529160200191610288565b820191906000526020600020905b81548152906001019060200180831161026b57829003601f168201915b5050505050905090565b60008061029d61047b565b90506102aa818585610483565b600191505092915050565b6000600254905090565b6000806102ca61047b565b90506102d7858285610495565b6102e2858585610529565b60019150509392505050565b60006012905090565b60008060008373ffffffffffffffffffffffffffffffffffffffff1673ffffffffffffffffffffffffffffffffffffffff168152602001908152602001600020549050919050565b60606004805461034e90610d2a565b80601f016020809104026020016040519081016040528092919081815260200182805461037a90610d2a565b80156103c75780601f1061039c576101008083540402835291602001916103c7565b820191906000526020600020905b8154815290600101906020018083116103aa57829003601f168201915b5050505050905090565b6000806103dc61047b565b90506103e9818585610529565b600191505092915050565b6000600160008473ffffffffffffffffffffffffffffffffffffffff1673ffffffffffffffffffffffffffffffffffffffff16815260200190815260200160002060008373ffffffffffffffffffffffffffffffffffffffff1673ffffffffffffffffffffffffffffffffffffffff16815260200190815260200160002054905092915050565b600033905090565b610490838383600161061d565b505050565b60006104a184846103f4565b90507fffffffffffffffffffffffffffffffffffffffffffffffffffffffffffffffff81146105235781811015610513578281836040517ffb8f41b200000000000000000000000000000000000000000000000000000000815260040161050a93929190610d6a565b60405180910390fd5b6105228484848403600061061d565b5b50505050565b600073ffffffffffffffffffffffffffffffffffffffff168373ffffffffffffffffffffffffffffffffffffffff160361059b5760006040517f96c6fd1e0000000000000000000000000000000000000000000000000000000081526004016105929190610da1565b60405180910390fd5b600073ffffffffffffffffffffffffffffffffffffffff168273ffffffffffffffffffffffffffffffffffffffff160361060d5760006040517fec442f050000000000000000000000000000000000000000000000000000000081526004016106049190610da1565b60405180910390fd5b6106188383836107f4565b505050565b600073ffffffffffffffffffffffffffffffffffffffff168473ffffffffffffffffffffffffffffffffffffffff160361068f5760006040517fe602df050000000000000000000000000000000000000000000000000000000081526004016106869190610da1565b60405180910390fd5b600073ffffffffffffffffffffffffffffffffffffffff168373ffffffffffffffffffffffffffffffffffffffff16036107015760006040517f94280d620000000000000000000000000000000000000000000000000000000081526004016106f89190610da1565b60405180910390fd5b81600160008673ffffffffffffffffffffffffffffffffffffffff1673ffffffffffffffffffffffffffffffffffffffff16815260200190815260200160002060008573ffffffffffffffffffffffffffffffffffffffff1673ffffffffffffffffffffffffffffffffffffffff1681526020019081526020016000208190555080156107ee578273ffffffffffffffffffffffffffffffffffffffff168473ffffffffffffffffffffffffffffffffffffffff167f8c5be1e5ebec7d5bd14f71427d1e84f3dd0314c0f7b2291e5b200ac8c7c3b925846040516107e59190610be9565b60405180910390a35b50505050565b600073ffffffffffffffffffffffffffffffffffffffff168373ffffffffffffffffffffffffffffffffffffffff160361084657806002600082825461083a9190610deb565b92505081905550610919565b60008060008573ffffffffffffffffffffffffffffffffffffffff1673ffffffffffffffffffffffffffffffffffffffff168152602001908152602001600020549050818110156108d2578381836040517fe450d38c0000000000000000000000000000000000000000000000000000000081526004016108c993929190610d6a565b60405180910390fd5b8181036000808673ffffffffffffffffffffffffffffffffffffffff1673ffffffffffffffffffffffffffffffffffffffff16815260200190815260200160002081905550505b600073ffffffffffffffffffffffffffffffffffffffff168273ffffffffffffffffffffffffffffffffffffffff160361096257806002600082825403925050819055506109af565b806000808473ffffffffffffffffffffffffffffffffffffffff1673ffffffffffffffffffffffffffffffffffffffff168152602001908152602001600020600082825401925050819055505b8173ffffffffffffffffffffffffffffffffffffffff168373ffffffffffffffffffffffffffffffffffffffff167fddf252ad1be2c89b69c2b068fc378daa952ba7f163c4a11628f55a4df523b3ef83604051610a0c9190610be9565b60405180910390a3505050565b600081519050919050565b600082825260208201905092915050565b60005b83811015610a53578082015181840152602081019050610a38565b60008484015250505050565b6000601f19601f8301169050919050565b6000610a7b82610a19565b610a858185610a24565b9350610a95818560208601610a35565b610a9e81610a5f565b840191505092915050565b60006020820190508181036000830152610ac38184610a70565b905092915050565b600080fd5b600073ffffffffffffffffffffffffffffffffffffffff82169050919050565b6000610afb82610ad0565b9050919050565b610b0b81610af0565b8114610b1657600080fd5b50565b600081359050610b2881610b02565b92915050565b6000819050919050565b610b4181610b2e565b8114610b4c57600080fd5b50565b600081359050610b5e81610b38565b92915050565b60008060408385031215610b7b57610b7a610acb565b5b6000610b8985828601610b19565b9250506020610b9a85828601610b4f565b9150509250929050565b60008115159050919050565b610bb981610ba4565b82525050565b6000602082019050610bd46000830184610bb0565b92915050565b610be381610b2e565b82525050565b6000602082019050610bfe6000830184610bda565b92915050565b600080600060608486031215610c1d57610c1c610acb565b5b6000610c2b86828701610b19565b9350506020610c3c86828701610b19565b9250506040610c4d86828701610b4f565b9150509250925092565b600060ff82169050919050565b610c6d81610c57565b82525050565b6000602082019050610c886000830184610c64565b92915050565b600060208284031215610ca457610ca3610acb565b5b6000610cb284828501610b19565b91505092915050565b60008060408385031215610cd257610cd1610acb565b5b6000610ce085828601610b19565b9250506020610cf185828601610b19565b9150509250929050565b7f4e487b7100000000000000000000000000000000000000000000000000000000600052602260045260246000fd5b60006002820490506001821680610d4257607f821691505b602082108103610d5557610d54610cfb565b5b50919050565b610d6481610af0565b82525050565b6000606082019050610d7f6000830186610d5b565b610d8c6020830185610bda565b610d996040830184610bda565b949350505050565b6000602082019050610db66000830184610d5b565b92915050565b7f4e487b7100000000000000000000000000000000000000000000000000000000600052601160045260246000fd5b6000610df682610b2e565b9150610e0183610b2e565b9250828201905080821115610e1957610e18610dbc565b5b9291505056fea2646970667358221220b45585809571e9f2cd742981d5b186dfc0c4f11e0bfe031a57ff0a872906d88264736f6c63430008140033",
  "linkReferences": {},
  "deployedLinkReferences": {}
}